:020000040800F2
:1000000000010020A1010008950C0008B587000838
:10001000950C0008950C0008950C0008950C00083C
:10002000950C0008950C0008950C0008E5110008D7
:10003000950C0008950C0008950C0008950C00081C
:10004000950C0008950C0008950C0008950C00080C
:10005000950C0008950C0008950C0008C1260108B5
:10006000D9260108F1260108950C0008950C000816
:10007000950C0008950C0008A5260108950C0008B1
:10008000950C0008950C0008E1210108950C00086A
:10009000950C0008950C0008950C0008950C0008BC
:1000A000950C0008950C0008950C0008950C0008AC
:1000B00099200008950C0008950C0008950C000884
:1000C000950C0008950C0008950C0008950C00088C
:1000D000950C00081D210008950C0008950C0008DF
:1000E000950C0008950C0008950C0008950C00086C
:1000F000950C0008950C0008950C0008950C00085C
:10010000950C0008950C0008950C0008950C00084B
:10011000950C0008950C0008950C0008950C00083B
:10012000950C0008950C0008950C0008950C00082B
:10013000950C0008950C0008950C0008950C00081B
:10014000950C0008950C0008950C0008950C00080B
:10015000950C0008950C0008950C0008950C0008FB
:10016000950C0008950C0008950C0008AD240008BB
:10017000950C0008950C0008950C0008950C0008DB
:10018000950C0008950C0008950C0008950C0008CB
:10019000950C0008950C0008950C0008950C0008BB
:1001A00072B6344880F3098840F20000CCF20000B7
:1001B0004EF63471CEF200010860BFF34F8FBFF3EB
:1001C0006F8F40F20000C0F2F0004EF68851CEF280
:1001D00000010860BFF34F8FBFF36F8F4FF0000037
:1001E000E1EE100A4EF63C71CEF2000108600620E6
:1001F00080F31488BFF36F8F00F012FD02F09CFAB9
:100200004FF055301C491D4A91423CBF41F8040B48
:10021000FAE71B49174A91423CBF41F8040BFAE741
:100220001849194A194B9A423EBF51F8040B42F83B
:10023000040BF8E700201649164A91423CBF41F8EA
:10024000040BFAE700F0F2FC00F0ECFC124C134D4A
:10025000AC4203DA54F8041B8847F9E708F0FAF8CF
:100260000F4C104DAC4203DA54F8041B8847F9E7F1
:1002700000F0DABC00030020000000200001002094
:10028000000100200085010800030020F003002089
:10029000F0030020749A0020A0010008A0010008CB
:1002A000A0010008A00100082DE9F04F2DED108AF3
:1002B000C1F80CD0C3689D46BDEC108ABDE8F08F34
:1002C000002383F311882846A047002000F042FF56
:1002D00000F0D0FE00DFFEE781F0004102E000BF49
:1002E00083F0004330B54FEA41044FEA430594EAF6
:1002F000050F08BF90EA020F1FBF54EA000C55EA31
:10030000020C7FEA645C7FEA655C00F0E2804FEA01
:100310005454D4EB5555B8BF6D420CDD2C4480EAE3
:10032000020281EA030382EA000083EA010180EA13
:10033000020281EA0303362D88BF30BD11F0004F61
:100340004FEA01314FF4801C4CEA113102D0404297
:1003500061EB410113F0004F4FEA03334CEA1333D2
:1003600002D0524263EB430394EA050F00F0A780EA
:10037000A4F10104D5F1200E0DDB02FA0EFC22FAE5
:1003800005F2801841F1000103FA0EF2801843FAD9
:1003900005F359410EE0A5F120050EF1200E012ACA
:1003A00003FA0EFC28BF4CF0020C43FA05F3C01808
:1003B00051EBE37101F0004507D54FF0000EDCF181
:1003C000000C7EEB00006EEB0101B1F5801F1BD32A
:1003D000B1F5001F0CD349085FEA30004FEA3C0C2E
:1003E00004F101044FEA445212F5800F80F09A8024
:1003F000BCF1004F08BF5FEA500C50F1000041EB28
:10040000045141EA050130BD5FEA4C0C404141EB2B
:10041000010111F4801FA4F10104E9D191F0000F52
:1004200004BF01460020B1FA81F308BF2033A3F1D5
:100430000B03B3F120020CDA0C3208DD02F1140CCC
:10044000C2F10C0201FA0CF021FA02F10CE002F107
:100450001402D8BFC2F1200C01FA02F120FA0CFC00
:10046000DCBF41EA0C019040E41AA2BF01EB045149
:10047000294330BD6FEA04041F3C1CDA0C340EDC47
:1004800004F11404C4F1200220FA04F001FA02F38A
:1004900040EA030021FA04F345EA030130BDC4F148
:1004A0000C04C4F1200220FA02F001FA04F340EA3D
:1004B0000300294630BD21FA04F0294630BD94F0EE
:1004C000000F83F4801306BF81F480110134013DD5
:1004D0004EE77FEA645C18BF7FEA655C29D094EA46
:1004E000050F08BF90EA020F05D054EA000C04BFC4
:1004F0001946104630BD91EA030F1EBF00210020AF
:1005000030BD5FEA545C05D14000494128BF41F04D
:10051000004130BD14F580043CBF01F5801130BDB1
:1005200001F0004545F0FE4141F470014FF000003C
:1005300030BD7FEA645C1ABF194610467FEA655CED
:100540001CBF0B46024650EA013406BF52EA03358F
:1005500091EA030F41F4002130BD00BF90F0000F7D
:1005600004BF0021704730B54FF4806404F13204B9
:100570004FF000054FF0000150E700BF90F0000F72
:1005800004BF0021704730B54FF4806404F1320499
:1005900010F0004548BF40424FF000013EE700BF69
:1005A00042004FEAE2014FEA31014FEA02701FBFF9
:1005B00012F07F4393F07F4F81F06051704732F02B
:1005C0007F4208BF704793F07F4F04BF41F4002182
:1005D000704730B54FF4607401F0004521F00041E0
:1005E0001CE700BF50EA010208BF704730B54FF06A
:1005F00000050AE050EA010208BF704730B511F06B
:10060000004502D5404261EB41014FF4806404F1A2
:1006100032045FEA915C3FF4D8AE4FF003025FEA28
:10062000DC0C18BF03325FEADC0C18BF033202EBAC
:10063000DC02C2F1200300FA03FC20FA02F001FA06
:1006400003FE40EA0E0021FA02F11444BDE600BFA9
:100650004FEA4102B2F1E04324BFB3F5001CDCF1E4
:10066000FE5C0DD901F0004C4FEAC0024CEA50701C
:10067000B2F1004F40EB830008BF20F0010070474B
:1006800011F0804F21D113F13872BCBF01F000404E
:10069000704741F480114FEA5252C2F11802C2F180
:1006A000200C10FA0CF320FA02F018BF40F0010001
:1006B0004FEAC1234FEAD32303FA0CFC40EA0C00B3
:1006C00023FA02F34FEA4303CCE77FEA625307D1F0
:1006D00050EA01331EBF4FF0FE4040F44000704727
:1006E00001F0004040F0FE4040F40000704700BFC1
:1006F00080F0004002E000BF81F0004142001FBFD7
:100700005FEA410392EA030F7FEA226C7FEA236CDF
:100710006AD04FEA1262D2EB1363C1BFD2184140D4
:1007200048404140B8BF5B42192B88BF704710F06A
:10073000004F40F4000020F07F4018BF404211F00D
:10074000004F41F4000121F07F4118BF494292EA75
:10075000030F3FD0A2F1010241FA03FC10EB0C00A1
:10076000C3F1200301FA03F100F0004302D549422E
:1007700060EB4000B0F5000F13D3B0F1807F06D3DB
:1007800040084FEA310102F10102FE2A51D2B1F1D3
:10079000004F40EBC25008BF20F0010040EA0300C8
:1007A0007047490040EB000010F4000FA2F1010275
:1007B000EDD1B0FA80FCACF1080CB2EB0C0200FAFF
:1007C0000CF0AABF00EBC25052421843BCBFD0404D
:1007D0001843704792F0000F81F4000106BF80F4C7
:1007E00000000132013BB5E74FEA41037FEA226C8A
:1007F00018BF7FEA236C21D092EA030F04D092F055
:10080000000F08BF0846704790EA010F1CBF002088
:10081000704712F07F4F04D1400028BF40F00040E5
:10082000704712F100723CBF00F50000704700F005
:10083000004343F0FE4040F4000070477FEA22622C
:1008400016BF08467FEA23630146420206BF5FEAFD
:10085000412390EA010F40F4800070474FF00003FD
:1008600004E000BF10F0004348BF40425FEA000CC4
:1008700008BF704743F0964301464FF000001CE06C
:1008800050EA010208BF70474FF000030AE000BFC2
:1008900050EA010208BF704711F0004302D5404200
:1008A00061EB41015FEA010C02BF84460146002072
:1008B00043F0B64308BFA3F18053A3F50003BCFA8D
:1008C0008CF2083AA3EBC25310DB01FA02FC63443A
:1008D00000FA02FCC2F12002BCF1004F20FA02F241
:1008E00043EB020008BF20F00100704702F1200234
:1008F00001FA02FCC2F1200250EA4C0021FA02F295
:1009000043EB020008BF20EADC70704753B94AB9D4
:10091000002908BF00281CBF4FF0FF314FF0FF3007
:1009200000F074B9ADF1080C6DE904CE00F006F8E2
:10093000DDF804E0DDE9022304B070472DE9F0475B
:10094000089E04468846002B40F085808A42154662
:1009500048D9B2FA82F24AB1C2F1200701FA02F391
:1009600020FA07F7954047EA030894404FEA154EEE
:10097000230CB8FBFEF71FFA85FC0EFB178843EA31
:10098000084307FB0CF1994209D9EB1807F1FF3036
:1009900080F0E380994240F2E080023F2B445B1AF2
:1009A000A4B2B3FBFEF00EFB103344EA034400FB99
:1009B0000CFCA44509D92C1900F1FF3380F0CB8041
:1009C000A44540F2C88002382C4440EA0740A4EB1A
:1009D0000C0400271EB1D4400023C6E90043394669
:1009E000BDE8F087002A53D0B2FA82F2002A40F024
:1009F000B680491B4FEA154E1FFA85F80127B1FB57
:100A0000FEFC230C0EFB1C1143EA014308FB0CF116
:100A1000994207D9EB180CF1FF3002D2994200F24B
:100A2000EC808446591AA3B2B1FBFEF00EFB101401
:100A300043EA044408FB00F8A04507D92C1900F14B
:100A4000FF3302D2A04500F2DC801846A4EB080474
:100A500040EA0C40BEE78B4208D9002E78D0002730
:100A6000C6E9000138463946BDE8F087B3FA83F796
:100A70007FB98B4202D3824200F2BD80841A61EBBF
:100A8000030301209846002EA9D0C6E90048A6E736
:100A9000FFDEC7F12005BB4022FA05FC4CEA030C3F
:100AA00001FA07F420FA05F821FA05F34FEA1C4E83
:100AB00048EA0404B3FBFEF9210C0EFB19331FFABC
:100AC0008CF841EA034309FB08FA9A4502FA07F257
:100AD00000FA07F10BD91CEB030309F1FF3080F09A
:100AE00088809A4540F28580A9F102096344A3EB0E
:100AF0000A03A4B2B3FBFEF00EFB103344EA034436
:100B000000FB08F8A04508D91CEB040400F1FF33F2
:100B10006BD2A04569D90238644440EA0940A4EB8D
:100B20000804A0FB02894C45C6464B4654D351D01D
:100B3000002E69D0B1EB0E0264EB030404FA05F554
:100B400022FA07F3FC401D43C6E90054002746E79C
:100B50003746304643E7184637E707461FE7C2F1F6
:100B6000200320FA03F7954001FA02F021FA03F37B
:100B70004FEA154E3843010CB3FBFEF71FFA85F818
:100B80000EFB173341EA034107FB08F38B4204FADB
:100B900002F407D9691807F1FF3C28D28B4226D905
:100BA000023F2944CB1A81B2B3FBFEF00EFB103397
:100BB00041EA034100FB08F38B4207D9691800F1B1
:100BC000FF3C10D28B420ED902382944C91A40EAA0
:100BD000074714E74145ABD2B8EB020E69EB0C02B4
:100BE00001381346A4E76046F0E7184695E76746E4
:100BF000D8E781467BE7384645E7ACF1020C2B4449
:100C000010E702382C4421E73746E8E6704700BF7A
:100C1000034613F8012B002AFBD1181A013870473C
:100C2000704700BF704700BFFEE700BFF0B4144F2D
:100C3000144D1548154B164907F1700C00269842C3
:100C400013D904391A4651F8044F42F8044B904224
:100C5000F9D8421ED21A22F003020432134404E0EF
:100C6000674505D10AE043F8046B9D42FBD8F7E7DE
:100C7000D7E90413D7E906051037E0E7F0BC704761
:100C8000A82C0108749A0020749A0020749A0020FD
:100C9000F0850108FEE700BFFEE700BF38B5184C3D
:100CA00000F004F900F07EF820468022154900F09B
:100CB000E3F9154B44F8180C144901610122002492
:100CC00002759C60D968124A12484FF6FF05294008
:100CD0000A43DA60C268104942F08072C2600A6852
:100CE000102542F0010220200A60DD7783F82200FF
:100CF00084F3118862B60948BDE8384000F0E2B9D3
:100D000050050020282D010800ED00E00001002022
:100D10000003FA05F0ED00E0001000E0302D0108BE
:100D200072B6014B5862FEE7280500202DE9F04716
:100D30001B4D4FF080466C692A6A706AA368811A5D
:100D4000994205F1140900D21CE000274FF0200859
:100D50002168D4F80CA0134449452B62C1F80490D3
:100D60006961E76001D100F09DFA87F3118820697D
:100D7000D04788F311886C69706A2A6AA368811A5F
:100D80008B42E5D94C4509D013441B1A022B2CBFCA
:100D9000C0180230BDE8F04700F08ABABDE8F0871D
:100DA00028050020054B4FF0FF30002103F114020D
:100DB000C3E90701C3E90522704700BF28050020E9
:100DC000F8B51C4F3D46022955F8144F03614FF00A
:100DD000804338BF0221AC420646C260586A0AD13D
:100DE0003862C7E905660844C6E90044B160BDE859
:100DF000F84000F04FBA3D6AA3680844451BAB4277
:100E000003D900F055FA7C69A3689D4204D924688F
:100E1000ED1AA368AB42FAD36368C6E900431E60CB
:100E20006660B560A3684FF0FF325D1BA560FA6194
:100E3000F8BD00BF280500201B4B0268596981429C
:100E400010B40DD041680A600268143300249A423D
:100E50005160C46025D0816893680B44936020E0A2
:100E60001846002440F8142F82425060CC6003D111
:100E70005DF8044B00F016BA90688C68196A044457
:100E80004FF080409460406A421A944209D9091A8E
:100E90000B19022B2CBFC01802305DF8044B00F078
:100EA00007BA5DF8044B704728050020024B00226A
:100EB000C3E900339A60704728050020002281684A
:100EC000084B10B4044602751B689A688A42FBD22C
:100ED0005A682046C4E9003214605C605DF8044B37
:100EE000704700BF2805002008B5202383F3118830
:100EF000037D032B03D0042B05D043B90DE0836998
:100F000000221A6003E0D0E9003213605A604FF00B
:100F1000FF338361FFF7D2FF002383F3118808BDFD
:100F200000228168084B10B4044602751B689A6859
:100F30008A42FBD85A682046C4E9003214605C60DB
:100F40005DF8044B704700BF2805002038B50D4CF4
:100F50002569236828751A6822600121546023617D
:100F60001975EFF309822969643A914203D9064859
:100F7000FFF7D6FE236929461846BDE83840FFF73B
:100F800093B900BF28050020502D010830B54B1C37
:100F900087B00FD00B4C0C4A2369054601A8FFF718
:100FA0000FFF2846FFF7D2FF049B33B101A8FFF7DC
:100FB00043FF02E0FFF7CAFF024C2369986907B0BC
:100FC00030BD00BF28050020E90E000870B5114DA6
:100FD00086682A6994688161A64203D8BDE870409A
:100FE000FFF76CBF04461046FFF768FF0123064673
:100FF0002C612375EFF309830269643B9A4202D99D
:101000000548FFF78DFE31462046BDE87040FFF7EA
:101010004BB900BF28050020502D0108044B1A6869
:101020001B6990689B68984294BF0020012070471C
:101030002805002038B50D4C236820691A68226005
:101040000121546019752361FFF76AFF0546EFF32C
:1010500009830269643B9A4202D90548FFF760FEA2
:1010600029462069BDE83840FFF71EB92805002051
:10107000502D0108FFF7DEBF022182608182704798
:10108000D0E9011330B4D0E90425C06843F8101C3E
:10109000A3F1840143F8141C43F8442C02210022DC
:1010A000074C03F80C1C03F80B2C43F8405C43F886
:1010B000180C43F8244CA3F1200030BC704700BF4B
:1010C000C1020008D0E90132934210B504D2552183
:1010D00003F8011B9A42FBD1202383F31188FFF709
:1010E000CFFF00210446FFF771FF002383F311882F
:1010F000204610BDF8B54518A842069E05D2044604
:10110000552704F8017BA542FBD1202484F31188E4
:1011100020394418A4F16407094D2061022144E9F3
:101120000936A182C4E9022744F8045C2046002164
:10113000FFF74CFF002383F311882046F8BD00BF62
:10114000C1020008024B1B6998610F20FFF7FEBE29
:1011500028050020202383F31188FFF7F3BF00BF89
:1011600008B50146202383F311880820FFF70EFFFE
:10117000002383F3118808BD69B1084B10B40246FF
:1011800044681B690420C3E90024236053605DF8B0
:10119000044BFFF7FBBE4FF0FF30704728050020DF
:1011A000026890420AD010B4146804600346636079
:1011B000104691615DF8044BFFF780BE704700BF99
:1011C00038B5036898420BD004460D461A68226071
:1011D000184654609D61FFF771FE23689C42F5D16B
:1011E00038BD00BF80B4094A536823F0010300AF43
:1011F0005360EFF30983683383F30988002383F393
:101200001188BD465DF8047B704700BF30EF00E0F9
:1012100098B5202300AF83F31188114B5B6813F45A
:1012200000631AD0F1EE103AEFF309840D4B4FF042
:101230008072DB6844F8083C44F84C2CA4F1680345
:1012400083F30988FFF7EAFE18B1074B44F8503CD6
:1012500005E0064B44F8503C01E083F3118898BD4B
:1012600000ED00E030EF00E0D1020008D4020008F9
:1012700008B500F0A9FE00F0DBFA00F08BFC00F0EE
:1012800073FB01F05BFABDE8084000F001B800BF55
:1012900000F018BF4FF0804300210222586319610B
:1012A000DA6070474FF080430022DA60704700BF79
:1012B0004FF0804358637047C36810B444691960A5
:1012C000816982680B44A342C36002F1010228BF16
:1012D000036A826028BFC3605DF8044B704700BF9B
:1012E00070B40432039D049C826103FB0216002249
:1012F0004661C0E90B54C0E90000C0E90311C0E930
:1013000007318260C0E9092270BC7047016A00227F
:10131000C0E903118260C0E909226FF00101FFF703
:101320004FBF00BF10B5FFF7C7FF0021BDE8104059
:10133000FFF736BF836810B504463BB123691A68CE
:1013400004331A44C4E90932002003E0FFF714FF14
:101350000028F3D010BD00BF10B4D0E90514036914
:10136000826823448B42036124BF036A0361013A0C
:10137000C36A82600022426213B15DF8044B1847D1
:101380005DF8044B704700BF70B52023054683F31A
:101390001188446A44B9FFF7CDFF064608B96C6A64
:1013A00002E084F311880BE014F8016BAA6A6C6206
:1013B000944202D32846FFF7CFFF002383F311881E
:1013C000304670BD2DE9F8439846044689461746D5
:1013D000202383F311880025616A29B941462046FC
:1013E000FFF7A8FFB0B9616AA36A7E1B5B1A9E4231
:1013F00028BF1E463246484611F016FCD4E9093291
:101400003344934235446362204601D3FFF7A4FF7F
:10141000AF42E1D8002383F311882846BDE8F88362
:10142000D0E90332934203D182680AB100207047A9
:10143000181D7047836823B1006950F8043B0B60A6
:1014400070471846704700BF10B4D0E9051403690F
:10145000826823448B42036102F1FF3228BF036A92
:10146000826028BF036100215DF8044BFFF798BE3E
:10147000D0E90332934210B5044601D1826832B9F3
:10148000A1691A1D0B44C4E90923002004E0FFF7F9
:1014900073FE08B9E368F3E710BD00BF10B5FFF7AE
:1014A0000BFFC36A0022426213B1BDE81040184727
:1014B00010BD00BF70B520230E46044683F311888B
:1014C000456A45B91146FFF7D3FF08B9656A02E0DE
:1014D00085F311880EE02E70D4E90932013393426E
:1014E000636204D3A16920460439FFF7D7FF0020C7
:1014F00080F3118870BD00BF2DE9F843984604467B
:1015000089461746202383F311880025606A28B98D
:1015100041462046FFF7ACFFC8B9606AA36A7E1B4C
:101520001B1A9E4228BF1E46324609EB050111F0E8
:101530007BFBD4E90932334493423544636220464D
:1015400003D3A1690439FFF7A9FFAF42DED8002316
:1015500083F311882846BDE8F88300BF38B5856855
:1015600055B9416A41B1C2680439891A06D0FFF7FA
:10157000A3FE4562012002E0002000E0084638BDDD
:10158000034630B40269C0695C69DD68411C013AF8
:10159000A1421A61D96128BF0022285C28BFDA6104
:1015A00030BC70478269036930B4C468551C01338C
:1015B00085610361A154D0E905329A4224BF00231A
:1015C000836130BC704700BF10B400240461C0E9DF
:1015D0000644C0E90000C160426183605DF8044BCD
:1015E000704700BF0022C0E9062202616FF00101CE
:1015F000FFF7E6BDD0E90432934207D210B5FFF7FA
:10160000D1FF0021FFF7CCFD002010BD4FF0FF30CF
:10161000704700BF38B50446202383F3118803695F
:1016200033B12046FFF7ACFFA36805462BB906E0AF
:10163000FFF7A2FD054610B9F3E7204698470023BF
:1016400083F31188284638BD2DE9F04F83B0054655
:1016500001938A469046202383F31188002737E0C0
:10166000A8EB07039C4228BF1C465CB3012C0AEB85
:10167000070306D12846FFF783FF0AF80700013762
:1016800020E0EE69D5F814B0E968ABEB06094C45EB
:10169000314406D21846224611F0C6FAEE692644B5
:1016A0000BE04A46184611F0BFFAA6EB0B0626449B
:1016B00048443246E96811F0B7FA2B69EE611B1B0A
:1016C00027442B61AB680BB128469847B84509D928
:1016D0002C69002CC4D101992846FFF74DFD08B9AB
:1016E0002C69BDE7002383F31188384603B0BDE8B9
:1016F000F08F00BF70B520230E46044683F3118897
:10170000D0E904539D4206D231462046FFF74AFFF6
:10171000A3682BB905E01146FFF72EFD10B9F3E7DA
:1017200098470020002383F3118870BD026938B503
:1017300042B10446FFF724FF002105462046FFF78B
:101740002FFD01E04FF0FF35284638BD2DE9F04F61
:1017500083B0044601938B469146202383F311887E
:101760000027B84639E07D1BA9EB08039D4228BF3E
:101770001D4665B3012D0BEB080307D11BF80810BC
:10178000204608F10108FFF70DFF20E0A669E06898
:10179000A7EB060A5545304406D219462A4611F0F1
:1017A00043FAA6692E440DE0194652460093F61BF3
:1017B00011F03AFA009BE0682E4403EB0A0132462E
:1017C00011F032FA2369A6612B44A8442361A3686F
:1017D0000BB120469847C1450BD9D4E90457BD4207
:1017E000C1D301992046FFF7C7FC10B9D4E90457CB
:1017F000B9E7002383F31188404603B0BDE8F08FBA
:1018000008304FF0FF31FFF705BF00BF28304FF021
:10181000FF32FFF76FBF00BF08304FF0FF33FFF715
:1018200013BF00BF28304FF0FF33FFF78FBF00BF5B
:1018300000F0AEBC70B50C4B0360044601201546A9
:101840000B46207104F1480104F108004022FFF723
:10185000BBFE2B4604F1880104F128004022BDE8BC
:101860007040FFF7B1BE00BF602D010810B5202306
:10187000044683F3118800F0B5FC02232371002392
:1018800083F3118810BD00BF10B5046BD4F83C2160
:1018900013681978042982B016D12179022913D14D
:1018A00011791A8901238B4013420DD101A904F14A
:1018B0003C00FFF7BFFD024630B1D4F83C01019B6C
:1018C0000179006800F0B6F902B010BD38B5D0F863
:1018D0003C311A681178042901D0012017E0017900
:1018E0000229FAD15979548901238B401C40F4D143
:1018F00005460830FFF794FD0028EED0D5F83C31BE
:10190000024659791868402300F080F9204638BD16
:10191000006BFFF7DBBF00BF08304FF0FF31FFF770
:1019200033BD00BFD0F83C311B681B78042B04D1B9
:101930003C304FF0FF32FFF7BDBD6FF00100704744
:1019400008304FF0FF33FFF73DBD00BFD0F83C310A
:101950001B681B78042B04D13C304FF0FF33FFF79A
:10196000CBBD0020704700BF704700BF10B582B0EC
:1019700001230D490D4A019004460160037100F1F5
:101980007001009208304022FFF7AAFC084B009338
:10199000019404F1B40104F13C0002234022FFF75A
:1019A0009FFC02B010BD00BF802D01081119000876
:1019B000891800080B68202282F311880A7903EB4A
:1019C000820290624A79113243F822008A7912B178
:1019D00003EB8203986202230371C0F83C110023D9
:1019E00083F31188704700BF10B504460830FFF735
:1019F0008DFC04F13C00BDE81040FFF787BC00BF40
:101A000010B504460830FFF781FC04F13C00FFF7F5
:101A10007DFC2046BDE81040FFF758BF90F87430B9
:101A200003F06003202B13D190F87530202B0FD3D7
:101A3000212B02D9222B06D00AE0064B836607230E
:101A4000C366012070470023C0E91A3301207047A4
:101A50000020704700030020D0F83C21136819785B
:101A600004291FD1017902291CD111791A89012376
:101A70008B40134216D130B500F13C0583B00446CB
:101A80002846FFF76BFD58B101A92846FFF7D2FCA5
:101A9000D4F83C41019B21790246206800F0CAF845
:101AA00003B030BD704700BFF0B500EB810383B0D9
:101AB0009C6A3CB30E460546202282F311881F46DD
:101AC000DB685B691B683C3413B12046FFF7BCFC44
:101AD000204601A9FFF7AEFC024628B13146284650
:101AE000019B00F0A7F80AE0FB6859691B8A0968A6
:101AF000994204D131462846134600F09BF8002352
:101B000083F3118803B0F0BD113110B550F82140B6
:101B1000B4B1202383F31188D4F83C21136852799F
:101B200003EB8203DB689B69596819B104F1080073
:101B3000FFF7F8FB2046FFF7C9FE002383F3118867
:101B400010BD00BF704700BF10B50021044600F073
:101B5000A1FD2046002100F08BFD63681B6813B1D6
:101B6000052120469847062384F8643010BD00BF45
:101B700010B5B0F8763080F87E30044600F08EFB69
:101B800063681B6813B10121204698470323237023
:101B900010BD00BF00F056BB01230022037042605D
:101BA00000F12C0300F1480143F8042B8B429A61A9
:101BB000FAD18260704700BF38B50446202383F312
:101BC000118800254160C0E90355C0E90555C0E909
:101BD0000755C0E9095500F03BFB0223237085F34C
:101BE000118838BD10B4536900EB8104E2601BB169
:101BF00000241C605C609C6093691BB100221A6029
:101C00005A609A605DF8044B00F052BBF0B400EBF0
:101C100081044789D4F80CC00124DCF818508C40AA
:101C20003C4300274481AA60C5E90037F0BC00F0BE
:101C3000EBBB00BFF0B400EB81040789D4F80CC003
:101C40000124DCF814508C403C4300270481AA6036
:101C5000C5E90037F0BC00F0E9BB00BF70B5022356
:101C6000002504460370C567C0E90255C0E9045564
:101C7000C0E90655C0E90855856280F8645000F057
:101C80006BFB63681B6823B129462046BDE87040A2
:101C9000184770BD42681368052101700BB103211C
:101CA00018477047426813680421017003B1184750
:101CB000704700BF38B50446002580F8645000F135
:101CC000740200F085FB636825679B682BB994F864
:101CD000743013F0600F06D0A6E020469847002825
:101CE00040F0A780F3E703F01F03012B94F8752061
:101CF00055D013B1022B55D096E0092A00F29480FA
:101D0000DFE802F0050B920B921F2592363C04F19E
:101D10007C030220C4E91A308CE0B4F87630012B41
:101D200040F08280B4F87C3023F002039BB2032A97
:101D300008BF43F00203A4F87C300023C4E91A333F
:101D40007DE00023564A2267C4E91A3377E0B4F8ED
:101D500076106268B4F8783055682046CAB2090A2D
:101D6000A847002860D0D0E90003C4E91A3061E038
:101D700004F17F030120C4E91A305BE0626894F843
:101D8000763084F87F30002B136814BF04220322BE
:101D90002270002BD1D0022120469847CDE7002A9F
:101DA00042D110E0B4F8783003F00F0103F0800363
:101DB0000C2A39D8DFE802F00C22382238383838BB
:101DC000383838380700374BA3660220E06631E028
:101DD000C9B2204613B100F0EDFA01E000F0DCFAE0
:101DE000012802D0022805D01EE02F4BA366022056
:101DF000E0661FE02D4BC4E91A301BE0B4F8760012
:101E000090B989B1012AC9B2204606D113B100F0B8
:101E10006BFC92E700F050FC8FE713B100F03AFC46
:101E20008BE700F025FC88E72046BDE83840FFF747
:101E30008BBEE06EB4F87A30834238BFE36620236D
:101E400083F3118894F97430002BE36E12DA43B1F6
:101E5000A26E00212046FFF7EDFE012384F86430D6
:101E60001AE01A4619462046FFF7D0FE032384F8ED
:101E7000643011E043B1A26E00212046FFF7C6FE98
:101E8000042384F8643007E01A4619462046FFF719
:101E9000D1FE052384F86430002383F3118838BD14
:101EA000711B0008A82D0108A42D0108A02D010810
:101EB00038B590F864300446062B3AD8DFE803F0D2
:101EC00035041E35352E3500C36EB0F87A209342A6
:101ED00014D2C268128AB3FBF2F502FB15356DB954
:101EE000202383F311882B462A462946FFF7A2FEBA
:101EF00085F31188022384F864301AE0202383F3E9
:101F0000118800231A4619462046FFF77FFE00235A
:101F100083F31188032384F864300AE0036F03B16C
:101F20009847002384F8643003E0BDE83840FFF7A9
:101F30000BBE38BD90F86420062A29D838B5012395
:101F4000934013F067051ED1DA06044602D41B073E
:101F50000ED41CE0202383F311882B462A46294601
:101F6000FFF768FE85F31188052384F864300EE0DE
:101F7000C3689B695B6853B9036F03B1984700233B
:101F800084F8643003E0BDE83840FFF7DDBD38BDBC
:101F9000704700BF430910B49B0000F1604404F592
:101FA000614403F16043090103F5614300F01F0040
:101FB0000122C9B284F8001302FA00F0C3F88001CC
:101FC0005DF8044B186070470E4B0F489A6A4FF04B
:101FD000FF31002210B499629A621C6919611A617A
:101FE000DC68D960DA60DA695DF8044B42F080524F
:101FF000DA619A6942F001029A61036843F02003B2
:102000000360704700100240000001401F4A13683F
:1020100043F00103136013689807FCD553681B490C
:1020200023F003035360536853604B6813F00C03B1
:10203000FBD10868154A00F0F90008604B600B6896
:1020400043F480330B6013689903FCD5104B536045
:1020500042F210113023D162136313680B4943F02D
:10206000807313600B689B01FCD50A4B074A122052
:1020700018604B6843F002034B60536803F00C0395
:10208000082BFAD1136B1363704700BF0010024096
:1020900000041D07002002404FF080431A69920798
:1020A0000DD510B500241C61202383F31188FEF7A1
:1020B0003DFE84F31188BDE81040FFF7A9B8FFF793
:1020C000A7B800BF0F4A1048D36970B443F00103AA
:1020D000D36181684FF080430022012441F0010167
:1020E00040F2CF264FF0FF3581609E620221DD6213
:1020F0001C209A615A63DA605A605C611C6070BC93
:10210000FFF748BF00100240002004E0024A1368B5
:1021100043F080031360704700380140F8B51A4E51
:10212000D6F8C8402768E5692562202383F3118823
:10213000AA0608D50836A18C3046C9B2FFF75AFA6C
:10214000E569AB06F7D43E0610D528060ED50F4E2E
:102150003046FFF7EBFA002880B203DA27F080035D
:10216000236003E02085E5692906F1D47A0604D5C9
:102170006B0644BF27F040072760002383F31188D4
:10218000BDE8F840FFF744B86C0500209405002036
:1021900010B5094C094A20460021FFF74BFB084ABD
:1021A000084BC4F8C820C4F8CC3002212520BDE873
:1021B0001040FFF7EFBE00BF6C0500200D210008A6
:1021C0000038014000A24A04D0E932321868B2FB5C
:1021D000F1F120F001001860D9601A6842F00102A4
:1021E0001A60704770B561B1D1E90135CA680968F4
:1021F00043F4967343F0010345F0400542F00102B9
:1022000006E04FF4164140F22D13012244F240053E
:102210000479012C07D1094CA04204D1084EB469BD
:1022200044F48044B461D0F8C8406560A260236083
:10223000FFF7CAFF4FF0FF33236270BD6C0500202B
:10224000001002400148FFF7A7BC00BF3C06002079
:1022500038B50378012B19D10D4A9042044610D1AC
:102260000C490D4DCA6942F40002CA614A202B6430
:102270000D21FFF78FFE03214B20FFF78BFE00237C
:102280002B642046BDE83840FFF7E8BC38BD00BFEE
:102290003C06002000100240005C004090F87E30B8
:1022A000024A43F08003D364704700BF005C0040E3
:1022B00000EB810370B4DD682B6813F0030308D0D2
:1022C000022B09D9032B0CBF4FF4C0644FF40074E8
:1022D00003E04FF4007400E000241E4B6E691B6D98
:1022E00003F1804303F5C04303EB01126EB12B8A67
:1022F00000265660D0F88060013323F00103334498
:10230000C0F8803044F020041660AB69B3B16B8A2A
:102310003E2B05D95D1E6D1145F02005013301E00E
:1023200001335D10AD02D560D0F8805023F0010379
:102330002B44C0F8803044F4005495608B0003F1C6
:10234000804303F5B84321431A681A6070BC1960D2
:10235000704700BF005C004041680D4BC96870B415
:1023600000294FF080054FF000011965094C5964B0
:1023700008BF4FF41C46DD6418BF4FF41E464025CD
:102380001E64C0F88050C46070BCFFF791BF00BFEE
:10239000005C0040AC2D0108054B53F8210010F4FF
:1023A000405004D0B0F5805F0CBF01200220704780
:1023B000005C0040054B53F8210010F0300003D0C2
:1023C00010280CBF01200220704700BF005C0040B5
:1023D0000C4B1B6D03F1804303F5C04303EB01116C
:1023E00010B48B6803F1005303F540535B00D3E94D
:1023F0000040D3E90213148050809180D3805DF8AF
:10240000044B7047005C0040890001F1804101F5F8
:10241000B8410B6823F4904323F0700383F44053D6
:1024200043F4004343F080030B60704700EB8100EE
:10243000F0B4C2681C4B5569148A1B6DAF68D5E9AE
:102440000006801B844203F1804328BF044603F545
:10245000C04303EB0112601C4008136854600ED0A7
:1024600003F1005303F540535B00B21E03EB800001
:102470003A4432F8027F43F8047B8342F9D1890061
:1024800001F1804101F5B84134440B686C6023F4DC
:10249000F04323F0400383F0300343F4004343F060
:1024A00080030B60F0BC7047005C00402DE9F04FEA
:1024B0006C4B5C6CE243660587B05A6402D56A488F
:1024C000FFF7CCFB250507D5664A6748136C43F038
:1024D00008031364FFF7DEFBE0040AD5614B9A6C36
:1024E000110406D41A6C604822F008021A64FFF73F
:1024F000D9FBA20507D5DFF870B1DBF80430DB6843
:102500000BB158469847230406D5DFF85CB1DFF8D5
:102510005CA1DFF8509104E007B0BDE8F04FFEF792
:1025200077BE04F00F02930003F18043961C03F57D
:10253000B8430BEB8601E70618684D6819681DD48F
:102540006869D0E9000401EA0A0141F400418442CB
:10255000196004D211464448FFF768FF7CE0BBF8DD
:102560000830AC680121914023EA0103ABF8083040
:10257000002C71D011463C48A0476DE001EA0A01E9
:1025800041F0800104051960D1B203D56B6836486B
:10259000984761E0D9F85000D5F818E000F1804084
:1025A00000F5C04000EB0210DEF80840D0F808C08B
:1025B000C0680394DEF804700290C0F309080CF1BF
:1025C00000540398019704F54054384464005FEACE
:1025D000580705940490039708D0023800EB470C85
:1025E00054F8047B20F8027F6045F9D10298C007B7
:1025F0000AD50598039C074657F82400049F07F85E
:102600001400DEF8040001900198DEF80040404418
:10261000A042CEF8040002D2688A404510D90BEBE4
:102620008606BBF80A307468012000FA02F2E468FA
:1026300023EA0203ABF80A3074B10B48A0470BE061
:102640001A6822F4904222F0700282F4405242F45E
:10265000004242F080021A60D9F8444023043FF55A
:1026600060AF59E7005C00403C0600200F07FFFF09
:10267000890001F1804101F5B8410B6823F49043D2
:1026800023F0700383F4805343F4004343F080034A
:102690000B607047890001F1804101F5B8410B687A
:1026A00023F4F04323F0400383F0100343F400438A
:1026B00043F080030B607047890001F1804101F510
:1026C000B8410B6803F44053B3F5405F0BD00B687F
:1026D00023F4904323F0700383F4005343F4004346
:1026E00043F080030B607047890001F1804101F5E0
:1026F000B8410B6803F03003302B0BD00B6823F488
:10270000F04323F0400383F0200343F4004343F0FD
:1027100080030B60704700BF80B4054B00AF1B689F
:1027200083F30888034B1B68BD465DF8047B18479C
:1027300000D8FF1F04D8FF1FFFF768BC014B112210
:102740001A6070470020024084460B30F0B4054602
:1027500000E00023B1FBF2F602FB1617092F8CBF35
:10276000372430243C44E4B20F4605F8014D31468D
:102770000BB1013BEED19742EBD2401B60440CF809
:10278000014B604502D015F8014FF8E7F0BC7047E7
:10279000092970B51C4B0E46A8BF0926FCEEC07A6D
:1027A00053F82630B8EE677A06EE903A30EE470AD4
:1027B000F8EE666AB6EE007AA0EE267A0D46BCEE1A
:1027C000C77A17EE104AA34205D8E41A17EE903ADA
:1027D000013307EE903A00230A2217EE901AFFF712
:1027E000B3FF03467DB1094A928A12F4807F14BF79
:1027F0002C232E2300F8013B214633460A22BDE854
:102800007040FFF7A1BF70BDDC2D01080803002058
:102810000389012B06D943685A1C42601970038949
:10282000013B0381002070472DE9F04F2DED028B15
:1028300000248BB0202306468B469046CDE9014309
:102840009FEDB08ADFEDB08A03E02B19019300E021
:1028500001941BF8011B002900F00283252901D1F6
:10286000002407E0019A336801329B6801923046E8
:102870009847EEE75B461BF801ABBAF12D0F02D18A
:1028800044F00204F6E7BAF12B0F02D144F004043D
:10289000F0E7BAF1300F02D144F01004EAE7BAF1E0
:1028A0006A0F02D144F08004E4E7BAF1200F02D1AC
:1028B00044F02004DEE7BAF1620F02D001330025B4
:1028C00002E044F48074D5E7AAF13002D2B2092ABA
:1028D00041469B4605EB850006D9BAF12A0F08D17F
:1028E00051F8042BD2B2884602EB400513F801AB35
:1028F000EAE7BAF12E0F14D100271BF801ABAAF1B9
:102900003003DBB2092B424607EB870106D9BAF147
:102910002A0F09D152F8043BDBB2904603EB410782
:10292000EBE744F040040027AAF14403342B00F203
:102930002C82DFE813F06C002A0230012A022A02FE
:102940006C002A022A022A022A022A021C022A02F5
:102950002A022A022A022A021A022A022A0235001E
:102960002A022A022A022A022A022A022A022A0207
:102970002A022A0237006C002A0230012A022A02A7
:102980006C002A022A022A022A022A021C022A02B5
:10299000A0002A0243002A021A022A022A02350053
:1029A0001022E5E158F8043B8DF8103024F01004B3
:1029B00001230DF1100A0DF11107EDE158F804ABF8
:1029C00024F01001BAF1000F04D16006DFF844A131
:1029D00006D412E062069AF8003000F13D8209E068
:1029E00047F6FE70574617F8012FAAEB070303447A
:1029F0003AB908E0002B00F0D481781E002FF1D105
:102A0000CFE10133EFD10C46A7EB0A03C4E158F83C
:102A1000041B00290ADA2D2344F0080449428DF8EA
:102A200010300DF111000DF1100916E0670707D500
:102A30002B238DF810300DF111000DF110090CE071
:102A4000A00607D520238DF810300DF111000DF1EF
:102A5000100902E00DF110094846220644BF6A231E
:102A600000F8013B0A220023FFF76EFECA46074624
:102A7000A0EB090390E1434653F8042B0393002F86
:102A800040F0DB814FF0030C4FF00E081F49A1FB13
:102A90000230C00800EB8003A2EB43033033DBB20B
:102AA000092A8DF81D3037D9894644F6241E4FF087
:102AB000000A0DF11D070CE01EF0010F07D04FF0CA
:102AC000200307F8023C0AF1010A023F00E00F462A
:102AD0001046A9FB0032D20802EB8203A0EB4303AD
:102AE0003033DBB209284FEA5E0E07F8013C07F1EC
:102AF000FF31E1D8064A0DF11E0E12F80AA0AEEB26
:102B0000010E0FE000007A446F12833ACDCCCCCC9A
:102B1000C82D0108D42D01084FF0010E4FF0200AF6
:102B20000DF11D010DF11009CE444A46202B01F193
:102B300001000CF001070AD11FB10CF0FE0C2E238E
:102B400006E01CF0020F03D1881C4B7800E02FB97F
:102B5000B8F1000F08F1FF3107DB884602F8013BAE
:102B6000724502D003780146E0E71CF0020F02F143
:102B7000010708D0BAF1200F05D01346202203F830
:102B8000022B3A461F4682F800A0DDF80C80A7EB26
:102B90000903CA4600E1E30504D558F8043B00EEFA
:102BA000103A0AE008F1070828F00708F8E80201DF
:102BB000FDF74EFD00EE100A0346B5EEC00AF1EE39
:102BC00010FA0DD5B1EE400A2D2244F0080410EEA3
:102BD000103A8DF810200DF111000DF1100916E0DA
:102BE000600707D52B228DF810200DF111000DF193
:102BF00010090CE0A10607D520228DF810200DF158
:102C000011000DF1100902E00DF1100948462206ED
:102C100048BF6A2223F0004348BF00F8012BB3F1FC
:102C2000FF4F09D10746192307F8023B2022A7EBE3
:102C30000903CA464270AFE0630604D5BAF1460FF5
:102C400007D0092779E0BAF1460F76D10FFA87FA53
:102C500001E00327BA46B4EEC80AF1EE10FA0EDB23
:102C600020EE280A814B04E013F8012F20EE280AF9
:102C7000FAB1B4EEC80AF1EE10FAF5DA19E0F7EE9F
:102C8000007AB4EEE70AF1EE10FA19D520EE080A40
:102C9000774B04E013F8012F20EE080A22B1B4EEBE
:102CA000E70AF1EE10FAF5D4B4EEE80AF1EE10FA04
:102CB00006DD13F8013C23B1013F0FFA87FA00E06B
:102CC0000023FCEEC07A17EE902A632A04D9AAF1F9
:102CD000020A0FFA8AFA05E0092A84BF0AF1FF3ACC
:102CE0000FFA8AFABAF1000F039305DA0021FFF711
:102CF0004FFD039B07461CE05146FFF749FD039B30
:102D00000746BAF1000F14D010F8012C302A05D173
:102D1000411E0F4611F8012D302AFAD05549898AF3
:102D200011F4807F14BF2C212E218A4208BF07F1A5
:102D3000FF3733B107F8013B03E03946FFF728FDC1
:102D40000746E00600D41CE017F8013C302B84F065
:102D5000100405D17A1E174612F8013D302BFAD027
:102D60002E2B08BF07F1FF370BE00A2200E00822F4
:102D70000DF1100958F8041B48460023FFF7E4FC46
:102D80000746A7EB0903CA4606E08DF810A0012309
:102D90000DF1100A0DF11107ED1A07D4E10607D461
:102DA00001E00C4657462023029303E0002501E092
:102DB00030230293A2072FD414F02C0F16D0E30671
:102DC00014D5019A33681AF8011B9B68013230460A
:102DD000019298470AE0DDF808902C46336849468E
:102DE0009B6830469847013CF8D12DE0002DF2D188
:102DF0000FE0019CD146336819F8011B9B683046EF
:102E0000984709EB0403B945A3EB0A03F3D31C4627
:102E100005E0BA45EDD31CE5BA45EAD3019C002D87
:102E20003FF416ADDDF808902F46336849469B689D
:102E300030469847013FF8D107E50E2FA8BF0E276F
:102E4000B8464FF0010C21E6019BBA452B44019393
:102E500038BF2546CDD3FCE4002B7FF4C1ADA0E7FD
:102E600001980BB0BDEC028BBDE8F08FCA2D0108B4
:102E7000052E0108080300200CB430B50C1E85B0E7
:102E800012DD09AB0B4D02901A460899ADF80C40C3
:102E900001A8CDE90035FFF7C7FC029B0022844260
:102EA0001A7002DC601E00E0002005B0BDE8304072
:102EB00002B07047102E0108024400F8011B904236
:102EC000FBD1704710B5024410F8013B11F8014BDB
:102ED0009042A3EB040301D0002BF5D0184610BD9F
:102EE000C3690239023B8B4283BF4389006B01FBFC
:102EF0000300002070470000024600F10B01002093
:102F0000C30143EA500312F8010B50FA83F38A42DB
:102F1000D8B2F5D170470000417800230131490152
:102F20001A46022A05D1032201329142F9D81846E5
:102F3000704710B5845C04EBC334A4B204EB5303B4
:102F40009BB20132914203D9022AF3D10322F8E75E
:102F5000184610BD03685A1C02601878A0F161037E
:102F6000192B01D8203870477F2803D9024B184409
:102F700010F8800C704700BF202E0108F0B585B016
:102F80000546019114461E4614F0FF0F07D001A814
:102F9000FFF7E0FF08B900203EE0013CF4E72B78A2
:102FA000002B35D1002C33D0012035E02A2B0FD057
:102FB00002A8FFF7CFFF074603A8FFF7CBFF874222
:102FC00001461ED1002FEFD0029B1B783F2BEDD185
:102FD000002EE0D00022029B581C029019785B78EA
:102FE0003F290CBF013242F480723F2BF3D02A2BD1
:102FF000F1D0731E0399FFF7C1FF0028D4D1039BC2
:10300000197801A8FFF7A6FF002CC4D00029C2D070
:10301000019B02950393D7E705B0F0BD02687AB132
:10302000134613F8011B1F2908D93A29F9D1911C1D
:103030008B4205D11278302A02D1036000207047FC
:103040004FF0FF307047000038B50D4610B9092029
:10305000002311E003680446002BF8D01A78002AF8
:10306000F5D08188DA889142F1D158780EF002FECD
:1030700010F00100EBD123682B6038BD38B50D4648
:1030800040F26231144602F0B7FAFF2806D9012C4B
:1030900009D9030A2B706870022407E028B12CB10B
:1030A0002870012402E0002400E00446204638BDD8
:1030B0002DE9F8430025D0F800808D76836B002B36
:1030C00000F0C78098F80030042B0C46064645D126
:1030D0002B462E464027D8F8102092F82310A942FC
:1030E00021D97F2F03D93F23A37601261FE0F906BC
:1030F00008BF02370135D05B02372BB900F52052EB
:1031000092B2B2F5006F0CD306F11A01C6F120029B
:10311000214440EA0340FFF7B1FF0028E3D0064412
:1031200000200346D7E7002BDDD1002EDBD026445C
:103130000023B3766373D8F810301A7902F03701A0
:103140002173D20658BFD3E90E019A89628144BF28
:1031500000200021C4E90001DB8979E0C36C013360
:1031600025D0A9462F46D8F80C30585BB8B1B9F134
:10317000000F05D100F520539BB2B3F5006F0BD3C0
:1031800007F11A01C7F12002214440EA0940FFF784
:1031900075FF28B10744002002358146E3E7384631
:1031A000B9F1000F18BF0020204400238376F26B92
:1031B0000023551E18462E2615F8011F202900F160
:1031C00001000CD0052908BFE521092804D10B2BEB
:1031D00002D8E71801337E73E718013379730B289F
:1031E000EAD1E11800204873A17E31BB33B16FF002
:1031F0000C0604F10D000825361B0BE03F23A376D7
:10320000012114E09BB22E2B0FD0A3F1410119290B
:1032100006D90373311810F8013B002BF2D106E0F8
:10322000117B0D42F5D02033F3E71025F1E721445F
:1032300000238B76137B03B96373D37A03F03F03C8
:103240002373D369236000236360D38A6381138B64
:103250002381BDE8F883000038B50546002435F821
:10326000020B80B102F004FA630880B203EBC433AE
:10327000C2B212FA83F39BB2000A00EB530000EBD8
:10328000C33084B2EBE7204638BD000001380A4461
:1032900011F8013B00F8013F9142F9D1704700005D
:1032A000436B8B60D0E90E23C1E9042390F82130F1
:1032B00003F00203CB710023CB61704770B500F1BE
:1032C0003C060546826B4078012331460EF01AFD1C
:1032D00088B9A96BAB6A2A6AE870CB1A9342044694
:1032E0000AD2AB78022B07D10A4401233146687811
:1032F0000EF008FD00E00124204670BD38B5836B58
:103300008B4216D0C37804460D4673B92A46012372
:1033100004F13C0160780EF0B9FC002816BF4FF0B4
:10332000FF3500200120A56304E0FFF7C7FF08B9BF
:10333000ECE7002038BD000038B50023C3704FF023
:10334000FF3383630446FFF7D9FF002848D1B4F860
:103350003A524AF655239D4207D10B22234904F1E4
:103360003C00FFF7AFFD00283CD094F83C30EB2B3D
:1033700003D01833DBB2012B2BD84AF655239D42DC
:1033800006D108221A4904F18E00FFF79BFD60B3B5
:10339000B4F84730B3F5007F1BD194F84930C3B17E
:1033A0005A1E1A4215D1B4F84A3093B194F84C30F1
:1033B000013B012B0DD8B4F84D3053B1B4F84F3068
:1033C0007F2B03D8E36DB3F5803F02D3B4F85230BE
:1033D00053B94AF6552085420CBF0220032004E071
:1033E000042002E0012000E0002038BDAD2E0108DD
:1033F000B92E01082DE9F0478C1E416BC4F3C808B3
:1034000001EB14314FF0010904F0070409FA04F448
:10341000054616461F46E4B2284601F1010AFFF7A9
:103420006DFF00BB05EB080292F83C30234214BF4D
:1034300001210021B94218D06340013E82F83C309E
:1034400085F8039012D0640014F0FF04EAD108F16B
:103450000103B3F5007F4FF001044FF0000851461F
:10346000DAD09846DEE7012000E00220BDE8F087D0
:10347000012940F289802DE9F8430668F3698B42FF
:1034800040F284803378013B0C46032B7ED8DFE882
:1034900003F00229374701EB5105B16A304601EBD1
:1034A0005521FFF72BFF10B14FF0FF3072E06F1C7A
:1034B000B16AC5F30805354401EB5721304695F84C
:1034C0003C50FFF71BFF0028EED1C7F308073E442E
:1034D000E30796F83C0045EA00204CBF0009C0F322
:1034E0000B0057E0B16A304601EB1421FFF706FFED
:1034F0000028D9D1640004F4FF742644B08F49E059
:10350000B16A304601EBD411FFF7F8FE0028CBD1A9
:10351000A40004F4FE742644F06B20F0704039E0FF
:10352000D0E9048958EA0903C17901D0836803B955
:1035300061BB826875890229A4EB02020DD118F1E2
:10354000FF3349F1FF315B0A43EAC153B3FBF5F3A3
:103550009A421BD81CD0601C1CE0032902D183694D
:103560009342F8D8C3699BB9B16A304601EBD411D4
:10357000FFF7C4FE002897D1A40004F4FE7426448B
:10358000F06B20F0004005E001207047012001E0D1
:103590006FF00040BDE8F883F8B504682378042B89
:1035A0000CBF4FF080524FF400128A4201D8022023
:1035B00039E0CA060E46FAD10546826829636AB91F
:1035C000022B06D82389B3EB561FF0D9E36AAB630D
:1035D0001AE0E36AC271002BF4D01A4667897F02B1
:1035E000BE4211460CD32846FFF742FF431C024659
:1035F00018D00128DBD9E3698342D8D9F61BEFE75D
:103600002046FFF76DFCA863AB6B6A63002BCED03E
:1036100003EB56233C34C6F308063444AB63EC6337
:10362000002000E00120F8BD01296AD92DE9F84306
:10363000C3698B4205460C4665D90378013B1646A3
:10364000032B60D8DFE803F00239454501EB510751
:10365000816A01EB5721FFF751FE002854D114F085
:10366000010407F1010905F13C08C7F3080708D078
:1036700018F8073003F00F02330103F0F00313438F
:1036800000E0F3B208F80730A96A0123EB7001EB00
:1036900059212846FFF732FEB0BBC9F3080914B11F
:1036A000C6F3071606E018F80920C6F3032622F031
:1036B0000F02164308F8096020E0816A01EB14212B
:1036C000FFF71CFE00BB640004F4FF742C44A687C3
:1036D00014E0816A01EBD411FFF710FEA0B92B466C
:1036E000A40013F83C2B042A04F4FE7405D01A59E4
:1036F00026F0704602F0704216431E510123EB7013
:1037000002E0022070470220BDE8F88370B504464D
:103710000E461546E36973B1F21A012B02F101015D
:1037200020688CBF02322A46FFF77EFF20B9E3698A
:10373000013BE361EEE7184670BD000001292DE969
:10374000F843046801D8022075E0E3698B420D4616
:10375000F9D9064617460AB9A94628E02378042B6A
:1037600002D1C379022BF7D04FF0FF323946204601
:10377000FFF75AFF0028EFD05DE00128E3D0B0F159
:10378000FF3F2CD02378042B2BD1D4E90632023A08
:10379000934205D20133A361237943F001032371DE
:1037A0006A1C424525D1E3694345454606D9294669
:1037B0003046FFF75DFE80460028DED12378042BDB
:1037C00038D123E0F37953BBB468BC4230D02146F2
:1037D0003046FFF74DFE0128B5D9431C1AD1012010
:1037E00029E0002229462046FFF71EFF0028CCD002
:1037F00021E02378042B07D10023A2EB09024946DC
:103800002046FFF7F7FDB0B9C146CCE7002FD9D16C
:10381000F7710FE0631C83420446D6D00AE0032B05
:1038200008D1B368BB4205D8B2691344BB4201D387
:103830000223F3710020BDE8F8830000C379032B55
:1038400012D18168836970B50446CD18A94208D0A9
:103850004E1C32462068FFF7E7FE31460028F5D0BF
:1038600004E00020E07101E00020704770BD00001E
:103870002DE9FF4800230B600F461546FFF7CEFBEE
:10388000061EC0F2F980B14B53F82640002C00F020
:10389000F5803C60237805F0FE056BB160780EF092
:1038A000E9F9C70708D4002D00F0E48010F0040007
:1038B00000F08D810A208AE1F0B20023237060704D
:1038C0000EF052F9C60700F1DB800DB14107F1D4CB
:1038D00000212046FFF730FD02281BD1D4F8023228
:1038E0000093D4F812320193D4F822320293D4F820
:1038F000323203936E46002556F8041B29B1204648
:10390000FFF71AFD012801D80CE003200135042D32
:10391000F2D158E1042801D1012058E1012801D950
:103920000D2054E10128A16B0AD104F1470304F1F1
:103930007C0213F8015B002DF2D19A42F9D1A1E08B
:10394000B4F84730B3F5007FEAD1B4F8526006B955
:10395000266E94F84C002662431E012BA070DFD81F
:1039600094F84950ABB26381002BD9D06B1E2B4227
:10397000D6D1B4F84DC0A4F808C01CF00F0FCFD1B9
:10398000B4F84F3003B9E36DB4F84A20002AC7D029
:1039900006FB00FE02EB1C177744BB42C0D3D81BCA
:1039A000A842B0FBF5F3BBD369488342B8D84FF6C1
:1039B000F570834240F20081032502330A440F442C
:1039C000032DE3616162A262276308D1B4F8662027
:1039D0005CEA0202A4D1A26EE2629B000EE0BCF19E
:1039E000000F9DD07244022DE2624FEA43021BBFDA
:1039F000D21803F00103134603EB520303F2FF1343
:103A0000B6EB532F8CD34FF0FF33C4E90533032DAE
:103A10004FF08003237122D1B4F86C30012B1ED1FA
:103A200001312046FFF76AFCC8B9B4F83A22207188
:103A30004AF655239A4212D1E26B464B9A420ED176
:103A400003F1FF53D4F8202203F5005320339A42A8
:103A500005D1D4F82432A361D4F8283263613E4AF8
:103A60002570138801339BB21380E3803B4BE360E6
:103A70003B4B23610020AAE00B20A8E00C20A6E02D
:103A80000320A4E0B4F8A430B3F5807F7FF448AFFE
:103A900094F8A830092B7FF443AFD4E9212312EB2B
:103AA000010B43F1000CBCF1010F08BFBBF1000F8B
:103AB000BFF436AFD4F89000206294F8AA00A0704A
:103AC00001287FF42DAF94F8A96000FA06F6B0B291
:103AD000608100283FF424AFD4F8987021488742D1
:103AE0003FF61EAFB81CE061D4F89400D4F88C30D7
:103AF0006162B6B208447E431944206300238019F2
:103B0000A16243F100018C4508BF8345FFF408AF73
:103B1000D4F89C30E3622E467DB96389B3427FF6C8
:103B2000FFAEE16A2046FFF7DBF981192046FFF777
:103B3000E5FB00287FF4F0AE0136631993F83C30C2
:103B4000812B11D02035C5F30805E5E74C0700208F
:103B5000F5FFFF0F5252614150070020540700202B
:103B6000CC060020FDFFFF7F04F13C0635446D6963
:103B7000012D7FF6D5AEE369AB427FF6D1AE628907
:103B8000216BAB1E03FB02136363A16A204601EBAA
:103B9000D511FFF7B3FB00287FF4BEAE05F07F031D
:103BA00056F823305A1C03D00135AB42EDD0B7E6AE
:103BB000C4E90533042552E740F6F575AB428CBFE6
:103BC00002250125F9E604287FF4AAAEA4E604B094
:103BD000BDE8F0882DE9F84F07460568884631B9F9
:103BE0006E69A6B1EB69B34298BF012610E0FFF7FA
:103BF0003FFC0128044601D80124DBE0421C00F010
:103C0000BB80EB69834200F2D580464600E0012686
:103C1000AB690BB90024CDE02A78EB69042A5CD1AA
:103C2000A6F10209023B994528BF4FF00009CA4698
:103C30004FF0010B696B284601EB1A31FFF75EFB71
:103C400038BB0AF00703EA690BFA03F3CAF3C801A9
:103C5000DBB2023A6818544690F83C000AF1010AB7
:103C6000924500EA030002D25B00DBB204E04FF0B1
:103C7000000A4FF40071534608B902340DE0D145F3
:103C80000AD0002BE6D10131B1F5007FD2D2012359
:103C9000E0E74FF0FF3400E00024631E033300F23E
:103CA000898001231A4621462846FFF7A3FB0228F4
:103CB000A2D0012860D0B8F1000F02D10223FB711D
:103CC00065E0FB79022B5AD1731CA3425FD0BB681D
:103CD000F61A0323BE61FB7151E0464515D1741CF1
:103CE0009C4228BF022421463846FFF7C1FB012829
:103CF00082D0431C40D038B16B69012B05D9EA69E9
:103D0000934238BF1E4600E0ACB93446EB6901343B
:103D1000A34203D8012E7FF67DAF02242146384608
:103D2000FFF7A6FB38B101283FF466AF013023D07E
:103D3000B442EBD16EE74FF0FF3221462846FFF741
:103D400073FCB0B9B8F1000F05D0224641462846B1
:103D5000FFF76AFC68B9D5E90632023A93429CBF84
:103D600003F1FF33AB612B796C6143F001032B71DD
:103D700020E001287FF440AF4FF0FF341AE008F153
:103D80000102A242FB6908D12BB10133FB6100287B
:103D90007FF432AFDFE70223F8E70BB90123FB61C1
:103DA000224641463846FFF7B1FC0028E1D1012305
:103DB000FB61D0E72046BDE8F88F0000F8B5C37876
:103DC00004460D467BB929462046FFF789F804F1E1
:103DD0003C06A06307464FF4007200213046FFF70F
:103DE0006BF800250DE0FFF769FA0028EBD0012001
:103DF0000EE001237A19314660780DF083FF18B97F
:103E0000013563899D42F4D36089401B18BF0120AE
:103E1000F8BD00002DE9F8430568076B2B78042BEB
:103E20000CBF4FF080534FF400132037BB429CBFB0
:103E300000238363836B002B47D0C7F308088946B0
:103E40000446B8F1000F3AD1416B0133836331B9B5
:103E50002B89B3EB571F32D80023A36335E06B895E
:103E6000013B13EA57232AD1FFF702FB012806463C
:103E700001D802202CE0421C01D1012028E0EB698E
:103E8000834216D8B9F1000FE6D0616B2046FFF7E8
:103E9000A1FE0646D8B10128EBD0431CEDD0014667
:103EA0002846FFF78BFF0028E7D1E37943F00403AE
:103EB000E371666331462846FFF712F8A0633C358C
:103EC00045442763E563002002E0042000E007206A
:103ED000BDE8F8832DE9F04105460068A96B066945
:103EE000FFF70CFA044600285AD1E96B0B78852BB2
:103EF00055D120223046FFF7C9F9777801377F0185
:103F0000A7F16003B3F5007F49D821462846FFF7A3
:103F100081FF0428044642D0002841D1A96B2868BB
:103F2000FFF7ECF9044600283AD1E96B0B78C02B77
:103F300035D12022B018FFF7A9F996F823300F22C7
:103F40002C33B3FBF2F3B7EB431F28D34FF04008F9
:103F500000212846FFF75EFF042804461FD0F8B969
:103F6000A96B2868FFF7CAF90446C8B9E96B0B7852
:103F7000C12B14D1B8F17F0F04D8202206EB080022
:103F8000FFF784F908F120084745E1D8B8F1800F20
:103F900006D83046FEF7C0FF7388834200D0022463
:103FA0002046BDE8F0810000F8B50E460021074626
:103FB0000568FFF7F1FA00BB0446B96B2846FFF726
:103FC0009DF9D0B92A78FB6B042A1B7803D1DB4317
:103FD000C3F3C01305E0E52B1ABFB3FA83F35B0903
:103FE00001231BB10134B44201D109E01C46012177
:103FF0003846FFF70FFF0028DFD0042808BF07204E
:10400000F8BD000003682DE9F0411E690546304601
:10401000FEF782FFE96C708028467778FFF7BCFADC
:104020004FF001080446B4B9A96B2868FFF766F998
:10403000044680B920223146E86BFFF727F92B6848
:1040400083F803803FB121462846FFF7E3FE203680
:104050000446013FE7E7022C28BF0224E0B2BDE896
:10406000F0810000C16C4B1C2DE9F041044605684D
:10407000066B03D14FF0E508012717E0FFF78CFA34
:104080000028F7D01BE02A78E36B042A09BF1A78CE
:1040900083F8008002F07F021A70EF70236BB34246
:1040A0000DD200212046FFF7B5FE28B9A16B2846A6
:1040B000FFF724F90028E6D0042808BF0220BDE855
:1040C000F08100002DE9F843FF27D0F80080054675
:1040D0003C4604264FF6FF79A96B002977D040466D
:1040E000FFF70CF90646002875D1E86B0378002B22
:1040F00070D098F80020042A10D1852B5FD12B6B4B
:10410000EB642846FFF7E6FE0646002863D1D8F8A0
:1041100010301B7903F03F03AB715EE0C27AE52BF0
:1041200002F03F02AA7149D02E2B47D022F0200185
:10413000082943D00F2A36D1590605D503F0BF040C
:104140002B6B477BEB6401E0A34237D1437BBB423F
:1041500034D1428B92BB0378D8F80C60DFF880E052
:1041600023F040030D21013B4B4301211EF801CBFD
:1041700030F80CC031B1162B20D826F813C0614698
:10418000013301E0CC4519D101320D2AEED102787C
:10419000520605D521B1162B10D8002226F813207F
:1041A000013CE4B20BE02CB9FEF7A6FEB84201D107
:1041B000002612E04FF0FF33EB640EE0FF240021F5
:1041C0002846FFF727FE0646002885D003E0002E8C
:1041D000EED000E004260023AB633046BDE8F88350
:1041E000A02E01082DE9F04F002187B00546076891
:1041F000FFF7D2F98346002840F0D0803B78042BAB
:1042000029D1F868FFF728F880462846FFF75AFFBB
:10421000002840F0B4803B6993F82390B9F1160F61
:10422000F3D89B8C4345F0D1044640264C4500F022
:10423000AB80F10608BF02363B69985B01F018FAC3
:10424000FB68824633F8140001F012FA8245DCD193
:1042500002360134EAE74FF0FF33CDE902304FF088
:10426000FF0AEB64D046A96B3846FFF747F80028F1
:1042700040F08580EC6B2678002E00F08280E27A98
:10428000E52E02F03F03AB716CD0120702D50F2B65
:1042900068D101E00F2B52D195F84B30580667D406
:1042A000710606D52B6B94F80DA0EB6406F0BF06E3
:1042B00001E0B0455AD1637B534557D1638B002B46
:1042C00054D194F80080D7F80CB0DFF8DC90049655
:1042D00008F03F0808F1FF334FF00D0808FB03F822
:1042E00001212646019519F8010B345A91B1B8F114
:1042F000160F3AD8204601F0BBF905903BF818009C
:1043000001F0B6F90599814208F101052DD1214648
:10431000A84603E04FF6FF739C4226D1214B9945F6
:10432000E1D13446019D2378049E5A0603D511B18C
:104330003BF81830D3B9013E5FFA86F818E0B8F1BF
:10434000000F04D12046FEF7D7FD504524D095F844
:104350004B30DB0706D40B2205F140012046FEF767
:10436000B1FDC8B1029BEB6400E0019D4FF0FF0876
:1043700000212846FFF74EFD00283FF474AF834626
:104380000CE04FF0040B09E024B2FB6833F8143062
:10439000002B7FF43AAF01E0DDF80CB0584607B0CF
:1043A000BDE8F08FAD2E0108A02E01082DE9F04FD9
:1043B00090F84B5015F0A00599B040F09481066834
:1043C000F36833F815200AB10135FAE73378042B86
:1043D000044640F090800F230E35B5FBF3F5A91C81
:1043E000FFF7E2FD8246002840F08381236B05F150
:1043F00000650135A3EB4515E379E5645A0748D517
:1044000023F00403E3712046FFF718FA002840F078
:104410006D814FF0FF32616B2046FFF777F900287E
:1044200040F06481A368002B33D023680293236A91
:104430000493636A8DF80F30A16ACDF824A023F0AD
:10444000FF0302A8CDE9063A1591FFF7A5F8002869
:1044500040F04C8102A8FFF73DFD002840F0468166
:10446000D4E9042370894FF40071E1FB0023316922
:10447000C4E90423C1E90E23C1E90A23E37943F027
:10448000010381F8213002A8FFF7BCFD002840F0AD
:104490002D81D6E90354402200212046FEF70CFD71
:1044A000852300212370C02384F8203001200A4690
:1044B00040234FF0C10E8C465F1C04F803E004F863
:1044C00007C0CEB2023320B135F8120008B1013274
:1044D000D2B2E0520233DF06F5D135F81270013165
:1044E000002FE9D1B31C84F8232063702846FEF71F
:1044F000B3FEA084FDE000F140070C22394602A87B
:10450000FEF7C4FE9DF81330DB0770D54023DFF8BB
:10451000EC8184F84B304FF001090B2202A9384698
:10452000D6F80CA0FEF7B2FEB9F1050F14D9AAF126
:1045300002024B4632F8021F79B1102001F0010C43
:104540000CEB430313F4803F18BF83EA08030138E0
:104550004FEA5101F2D1EDE74B460DF1070007227A
:1045600003F00F0C0CF13001392988BF0CF1370131
:10457000013A4FEA131E00F8011903D00F2B01D99D
:104580007346EDE718AB13447E2104F13F0003F8B6
:10459000601C014600239A420DD011F801CFBCF1F6
:1045A000200F03F1010E06D07346F4E720210133FA
:1045B000072BC15407D8072AF8D818A9114401328B
:1045C00011F8601CF3E72046FFF70CFE38B909F13B
:1045D0000109B9F1640FA0D14FF0070A89E004285E
:1045E000824640F086809DF8133084F84B309DF869
:1045F00013309B0705D50C350D23B5FBF3F50135BD
:1046000000E0012529462046FFF7CEFC824600281F
:104610006FD1013D19D1A16B3046FEF76FFE824686
:10462000002866D101462022E06BFEF745FC0B22F4
:104630003946E06BFEF72AFE94F84B30E26B03F04C
:10464000180313730123F37053E0216B2046A1EB91
:104650004511FEF7A1FF824600284AD13846FEF7F1
:104660004BFC4FF6FF798046A16B3046FEF746FEC5
:10467000034600283CD1E36BD6F80CE0DFF880A0BD
:1046800083F80D804FF00F02E9B24FF00D0CDA7293
:104690004A1E0CFB02F2187358838446484518BF23
:1046A0003EF812001AF801BB0CF1010C18BF0132E0
:1046B00023F80B00002808BF4846BCF10D0FEDD1D0
:1046C000484502D03EF812200AB941F04001197065
:1046D0000123F37000212046FFF79CFB034638B905
:1046E000013DC1D197E74FF0060A02E0824600E0A3
:1046F0009A46504619B0BDE8F08F00BF2110010066
:10470000A02E010838B5C37804461BB92378032BC3
:104710002BD103E0FEF7D2FD78BBF7E72379012B1D
:1047200023D104F13C054FF4007200212846FEF726
:10473000C3FB4AF65522A4F83A22104AE26302F17A
:10474000FF5202F500522032C4F82022A269C4F8B8
:1047500024226269C4F82822626A60780132A26366
:1047600029460DF0CFFA002323710022114660780C
:104770000DF012FB003018BF012038BD52526141CC
:104780002DE9F04F85B00368029304468A4611F87C
:10479000013B2F2BFAD05C2BF8D00021A160E16106
:1047A0009AF800301F2B75D88023204684F84B30B0
:1047B00005B0BDE8F04FFEF7EFBE002B40F0B9802A
:1047C0002E2900F0B68032F8021D2E2901D0013EBC
:1047D000F9D10B22202104F140004FF00008FEF730
:1047E0006BFB4FF008095A464746CDF804A0A34694
:1047F00032F813005C1C002800F0FE80202800F036
:104800009E802E2800F09880C845C0F09C80B9F1A9
:104810000B0F40F09B80DDF804A05C4645F00305DB
:104820004FF00B0994F84030E52B04BF052384F8C2
:104830004030B9F1080F04BFBF00FFB207F00C030E
:104840000C2B40F0DD8045F0020584F84B502046EB
:10485000FFF7C8FC94F84B30002840F0E2805A077C
:1048600000F1FD80A379DB0640F1F280029B19780C
:10487000042940F0DD80A36823622369E27923F0F4
:10488000FF0313436362E36CA362029B2146186932
:10489000FEF706FD2368D3F80CB000261AF8010BCA
:1048A00050B340F2623100F0CFFE002800F0CE801D
:1048B0001F2821D92F2811D05C280FD07F2806D897
:1048C000684B13F8012B12B19042FAD1BEE0162EBC
:1048D00000F0BC802BF816000136DFE75246137853
:1048E0002F2B924602F10102F9D05C2BF7D01F2B3F
:1048F0008CBF0025042500E004250BEB46033EB1E8
:1049000033F8022D202A01D02E2A01D1013EF6E7EC
:1049100000230BEB46022BF81630002E00F0968099
:104920003BF81310202903F101007FF446AF034642
:10493000F6E745F0030546E7B44200F08B8045F00A
:104940000305234654E7B4420DD183E0B44202D0BC
:1049500045F0030550D8BF00FFB234464FF00B09B5
:104960004FF00808EDE77F2824D940F26231039226
:1049700000F042FE10F0800F45F0020A039A04D0C6
:1049800000F07F00384B185C12E0FF2810D909F1C5
:10499000FF33984503D345F00305C846D1E70BEB39
:1049A0000803010A83F8401008F1010855461CE08D
:1049B000554628B12D4B13F8011B29B18142FAD17C
:1049C00045F003055F2010E0A0F141039BB2192BD5
:1049D00002D847F0020708E0A0F161039BB2192B4F
:1049E00003D8203847F0010780B20BEB080308F129
:1049F000010883F84000A4E7DDF804A05C4611E755
:104A000007F00303032B3FF41EAFAE073FF51DAFC6
:104A1000F80748BF45F01005790748BF45F008057D
:104A200013E704281BD113F0040F08BF052016E07C
:104A3000029B226B3C33C2F30802134403295A8BB6
:104A400004BF9B8A42EA0342A26023E7062006E0F5
:104A5000052004E0B9F10B0F7FF47DAFDBE605B074
:104A6000BDE8F08FC22E0108202E0108CB2E0108D0
:104A70001FB5CDE9001003A814460391FEF7CEFA46
:104A8000002812DB0B4B53F820200AB100211170D3
:104A9000019A0AB10021117043F820203CB1002294
:104AA00001A96846FEF7E4FE02E00B2000E0204684
:104AB00004B010BD4C0700202DE9F0479AB00191D9
:104AC000002800F0318102F03F060446174603A992
:104AD000324601A8FEF7CCFE0546002840F02081B2
:104AE000039B0199049304A8FFF74AFE20B99DF99E
:104AF0005B30002BB8BF062017F01C0F7BD058B1DD
:104B0000042840F00D8104A8FFF750FC002840F075
:104B1000078146F008060AE09DF8163013F0110FE1
:104B200040F0FB80780700F1F480390774D5039BCF
:104B30001A78042A31D1186923602146FEF7B0FBA8
:104B4000039B18691E2200210230FEF7B5F9039B72
:104B500018691A2200212630FEF7AEF9039B1A6964
:104B6000202111711F690CF0FDFF039BB8601B69C8
:104B7000012283F8212004A8FFF744FA002840F01E
:104B8000CF80A168002947D002462046FEF7D6FD17
:104B9000A368039A013B53613BE00CF0E3FF139BD6
:104BA000039AC3F80E00C3F8160011785F8B03292F
:104BB00004BF998A47EA01472021D972139900233B
:104BC0004B831078CB61032808BF8B820123D370FD
:104BD00017B3D2F838803946002204A8FEF7AEFD9C
:104BE000002840F09D8041460398FEF787FB039B19
:104BF000013F5F610DE0002840F092809DF8163083
:104C0000DA0600F18880BF0706D5D80700F1858055
:104C100002E0002840F08480039A936BA364139B06
:104C2000E3643107117848BF46F0400604290FD1EC
:104C3000069B2362089B9DF81710106923F0FF0361
:104C40000B436362179BA3622146FEF729FB0AE030
:104C500003295A8B04BF998A42EA0142A260DB69A8
:104C6000236100236361039B2360DB88A380002111
:104C70000022002304F1500AC4E90E2384F83060B6
:104C80004FF4007284F8311061645046FEF714F955
:104C9000B2064AD5D4E9046756EA070345D0039B18
:104CA000A168B3F80A80C4E90E674FEA48284FF0BC
:104CB0000009B94508BFB0450DD22046FEF7D8FB24
:104CC000B6EB080667EB09070128014605D9431C26
:104CD000EFD1012002E0002000E002202164F8B9B9
:104CE000C6F30802034613431FD0DDF80C8040468C
:104CF000FEF7F6F898B1720A42EAC75202446264BB
:104D00000123514698F801000CF0C0FF68B1012062
:104D100006E0082004E0042002E0072000E0022072
:104D200000232360054600E0092528461AB0BDE8A7
:104D3000F08700002DE9F04F9B4687B000238A469C
:104D4000CBF8003005A904461746FEF77DF9054665
:104D5000002840F0B58094F83150002D40F0B0802C
:104D600094F83030D90740F1AA80D4E90E31D4E963
:104D70000420B2EB030860EB01090023994508BF4A
:104D8000B84538BF474604F150090295002F00F09E
:104D90009480D4E90E01C0F308030093002301932B
:104DA000DDE9002313436CD1059B5B895A1E430A3E
:104DB00043EAC153134015D150EA010201D1A06862
:104DC00005E0216C03932046FEF752FB039B01286C
:104DD00001D8022502E0421C03D1012584F831509C
:104DE0006EE02064DDF81480216C03934046FEF7EA
:104DF00077F80028EDD0039BB7F5007F03EB0006A2
:104E000020D37D0AB8F80A2098F801005919914278
:104E100088BFD51A2B46324651460CF037FF002882
:104E2000DBD194F93030002B0ADA606C801BA84289
:104E300006D24FF4007249460AEB4020FEF726FAEC
:104E40006D022BE0626CB2421AD094F93030002B24
:104E50000DDA0123494698F801000CF053FF0028B1
:104E6000BBD194F8303003F07F0384F830300598DC
:104E700001233246494640780CF008FF0028ACD1A7
:104E80006664A16BC1F30801C1F50075BD4228BF7E
:104E90003D462A4649445046FEF7F8F9DBF8003013
:104EA0002B44CBF80030D4E90E23501943F1000114
:104EB0007F1BAA44C4E90E0168E7029D00E00725B4
:104EC000284607B0BDE8F08F2DE9F04F87B01546B2
:104ED0000293029A00238B46136005A90446FEF74D
:104EE000B3F88246002840F0DB8094F831A0BAF194
:104EF000000F40F0D58094F830309A0740F1CE8012
:104F0000059B1B78042B03D0A36BEB4200D3DD433E
:104F100004F15009CDF80CA00DB3D4E90E23C2F36F
:104F20000801009100210191DDE90001014340F0F9
:104F300087800599B1F80AA0510A0AF1FF3A41EABF
:104F4000C3511AEA010A23D1134303D1A06878B9E7
:104F5000014600E0216C2046FEF73CFE40B994F883
:104F60003030DDF80CA043F0400384F8303097E097
:104F7000012802D14FF0020A03E0431C04D14FF094
:104F8000010A84F831A08BE0A368206403B9A06013
:104F900094F93030002B0EDA0598626C40780123CA
:104FA00049460CF0AFFE0028E9D194F8303003F008
:104FB0007F0384F83030059E216C3046FDF790FF6A
:104FC0000028D7D0B5F5007F0AEB000724D34FEABD
:104FD0005528738970780AEB08029A4288BFA3EBC0
:104FE0000A0843463A4659460CF08CFE0028C6D1C2
:104FF000616CC91B41450CD24FF400720BEB41218F
:105000004846FEF743F994F8303003F07F0384F804
:1050100030304FEA482826E0636CBB420FD0D4E919
:105020000423D4E90E01994208BF904207D201231C
:105030003A46494670780CF029FE00289FD16764F3
:10504000A06BC0F30800C0F50078A84528BFA846AB
:10505000424659464844FEF719F994F8303063F057
:105060007F0384F83030029B029A1B68434413602C
:10507000D4E90E23D4E9040112EB080643F100073A
:10508000B94208BFB0423CBF30463946A5EB0805DF
:10509000C344C4E90E67C4E904013DE74FF0070AC1
:1050A000504607B0BDE8F08F70B598B001A904462E
:1050B000FDF7CAFF002840F0888094F830305A0687
:1050C00040F183801B060FD50198626C4078012364
:1050D00004F150010CF016FE002875D194F8303020
:1050E00003F07F0384F830300CF03CFD0546019856
:1050F0000378042B45D12046FEF7A0FB002864D19D
:105100004FF0FF32216C2046FEF700FB00285CD1F7
:1051100023680293236A0493636A8DF80F3023F0A7
:10512000FF03CDE906300990A16A159102A8FEF7A8
:1051300033FA002849D102A8FEF7CCFE002844D15A
:10514000019E3269137943F020031371E3793269C8
:1051500043F0010382F821303169A3684B63D4E93D
:105160000423C1E90E23D4E904234875C1E90A23C5
:105170003369CD60186102A8FEF744FF28BB01988F
:1051800019E0A16CFEF7BAF8F8B9E36C0198DA7A85
:1051900042F02002DA72A26821685A830978032952
:1051A00004BF120C9A822269DA610022C3F81650F9
:1051B0005A820123C370FFF7A5FA94F8303023F028
:1051C000400384F8303000E0012018B070BD0000CA
:1051D00013B50446FFF768FF28B901A92046FDF77B
:1051E00033FF00B9206002B010BD00002DE9F04F80
:1051F00087B005A9044616461F46FDF725FF8246DF
:10520000002840F0048194F831A0BAF1000F40F07A
:10521000FE80059B1B78042B0DD0059D2B78042B5D
:1052200013D00023BB424FF0FF3208BFB2423CBF55
:1052300016461F4609E04FF0FF32216C2046FEF76C
:1052400065FA0028E9D08246E1E0D4E90423BB42B4
:1052500008BFB24205D294F8301089075CBF1646E9
:105260001F4600210020D4E90E23C4E90E0156EAAE
:10527000070101D1002592E06D8952EA03014FEA4E
:10528000452523D012F1FF3B43F1FF3816F1FF30E3
:1052900047F1FF312A460023FBF738FB2A46CDE9C8
:1052A0000001002358464146FBF730FBDDE90023AF
:1052B0008B4208BF824209D3694201EA0B03F61A06
:1052C000C4E90E3867EB0807216C13E0A16881B9C7
:1052D0002046FEF77FFC0128014602D14FF0020A6A
:1052E00003E0013004D14FF0010A84F831A08EE0D0
:1052F000A16021640029BDD0A8464FF000095546A1
:10530000B94508BFB045D4E90E322DD2B6EB080638
:1053100094F8300067EB090718EB030A49EB020B1E
:105320008207C4E90EAB11D5D4E904235B4508BF5D
:10533000524505D2C4E904AB40F0400084F8300087
:105340002046FEF747FC014620B90FE02046FEF755
:105350008FF801464B1CC6D00129BFD9059BDB69DC
:105360008B42BBD92164CBE7AA4602E0AA460026BD
:105370000027D4E90E329B1947EB0202C4E90E3232
:10538000C6F30802002313433FF474AF0598FDF7FA
:10539000A7FD0028A2D0730A43EAC753C518D4E971
:1053A0000E01D4E904238B4208BF824207D294F84D
:1053B0003030C4E9040143F0400384F83030C0F3D6
:1053C00008020023134322D0626CAA421FD094F932
:1053D0003030002B04F150060EDA059801233146D7
:1053E00040780CF08FFC00287FF47DAF94F83030CB
:1053F00003F07F0384F83030059801232A463146B4
:1054000040780CF043FC00287FF46DAF6564504693
:1054100007B0BDE8F08F00001FB50191002840D013
:105420000446002203A901A8FEF722FA002835D17C
:10543000039B236001992046FFF7A2F9002832D18F
:1054400094F94B30002B1FDBA379DB0601D4052038
:1054500024E0039A117804290ED1A36823622369FA
:10546000E179106923F0FF030B436362E36CA362ED
:105470002146FDF715FF07E0E26B0329538B04BFBC
:10548000928A43EA0243A360039BDB88A380002146
:105490002046FEF781F80428D9D038B100232360D4
:1054A00004E0092002E00428D1D0F7E704B010BDE1
:1054B00013B501A90446FDF7C7FD00B9206002B08D
:1054C00010BD000073B50D4601A90446FDF7BCFDF3
:1054D000B0B925B901462046FEF75EF810E0204637
:1054E000FEF7F0FD10F0FB060AD129462046FDF735
:1054F000DFFD31462046FEF78DFC042808BF002062
:1055000002B070BDF8B506460C4601F11A072146F7
:105510003046FFF7D7FF054650B94CB1A37E3BB1EB
:10552000024604233946306DFDF728FD0028EED0F1
:105530002846F8BD10B5BCB00222019003A901A80D
:10554000FEF796F9002854D1039B0199109310A8F7
:10555000FFF716F900284CD19DF98B30002B47DB63
:105560009DF84630DA0701D5072042E0039B0493FB
:105570001A78042A05D104A91869FDF791FE069C42
:1055800006E01F9B032A5C8B04BF9B8A44EA03440A
:105590009DF84630DB0604D410A8FEF763FDD8B1B1
:1055A00027E0039B269328941B78042B07D1DDE981
:1055B0000823CDE92A239DF817308DF89F3000216C
:1055C00026A8FDF7E9FFA0B926A8FEF77BFD002875
:1055D000CAD004280DD1DFE71CB90398FFF792F871
:1055E00007E00246214604A8FEF7A8F808B9F4E748
:1055F00006203CB010BD00007F2801D880B2704763
:10560000B0F5803F18D240F26233994214D110B401
:105610000C4900234FF4826203E0802B0AD031F85A
:10562000022F82429CB203F10103F6D104F1800003
:1056300080B203E0002001E0002070475DF8044BD9
:10564000704700BF843101087F280DD940F26233D2
:10565000994208D1FF2806D800F10040034B80385A
:1056600033F8100070470020704700BF84310108F4
:10567000B0F5803F4ED2284A284BB0F5805FF0B499
:1056800041F67D512CBF1346612186B204331F467B
:1056900000293CD08E423AD333F8022CD4B265189C
:1056A000A8424FEA122228DA082A30D8DFE802F0AE
:1056B00005090F1215181B1E2100411A33F811603D
:1056C00025E0711A01F00103F61AB6B21FE0103E90
:1056D000B6B21CE0203EB6B219E0303EB6B216E0DB
:1056E0001A3EB6B213E00836B6B210E0503EB6B27B
:1056F0000DE0A6F5E356B6B209E0043312B133F873
:10570000041CC4E707EB440337F81410BEE7304627
:10571000F0BC7047704700BFC8300108D42E0108A4
:1057200008B5202383F311880348FCF795F900237B
:1057300083F3118808BD00BF8407002038B50C46EC
:10574000202383F31188022902D003290ED010E010
:1057500005460A4A0121FCF745FA28462146084A2F
:10576000FCF740FA0748FCF74BF902E00548FCF764
:105770003BF9002383F3118838BD00BFFC3A0108D0
:10578000183B010884070020164B174A17491B686D
:105790001268096870B4164E13440B43304606F184
:1057A000180503F01F040A2C34BF3022372222448C
:1057B00020F8022F5B09A84243EAC1634FEA511166
:1057C000EFD10C4840F21A311A220023C0F8DC6FE6
:1057D000A0F8E01FA0F8D82FA0F8DA3F70BC00F6C0
:1057E000D8707047ACF7FF1FB4F7FF1FB0F7FF1F6B
:1057F0004C9A00206C8A0020022913D0032904D07F
:1058000001290A4818BF00207047032A05D1084B18
:105810009B8A5B0502D5FFF7B7BF05D8054800EBAB
:10582000C20070470448704700207047983B010849
:1058300008030020F03B01084C3B010830EE010A50
:10584000F0EE007AA0EEA70AF5EE007A20EE270A25
:10585000704700BF002A50D001390B1A00FB03F03B
:1058600002FB00F000FB02F007EE900A01FB01F1E1
:10587000B8EE677A07EE901AF8EE676A9FED202A75
:105880009FED203A9FED204A9FED205A9FED206A20
:10589000DFED201ADFED202ADFED203ADFED204A90
:1058A000DFED205AC7EE267AB7EE000AF0EE426A24
:1058B000B5EE007AE1EEA76AE6EEA72AF0EE436ABB
:1058C000E2EEA76AE6EEA73AF0EE446AE3EEA76AD4
:1058D000E6EEA74AF0EE456AE4EEA76AE6EEA75ABE
:1058E000F0EE466AE5EEA76AA6EEA77AF0EE406A09
:1058F000E7EE876AA7EEA60A7047B7EE000A704780
:105900004EE534269998052D22152933B4A29138F5
:10591000398EE33CD4CBA022C400AB292215293018
:105920002E740136398EE33A054B1B6810B41C689F
:1059300024680A460146184623465DF8044B18477A
:105940008063002030B42C4D6C8B002C4BD005EBC9
:10595000C4042A4605F6585105F5CF53F7EE002A40
:1059600093ED007A92ED343AD1ED016AD2ED353AF9
:10597000D1ED005AD3ED017A73EE474A37EE437A00
:1059800033EEE76A35EEA24A77EEE37A32EEE55A75
:1059900067EE265A012826EEC66A64EEA64A67EE2E
:1059A000043A67EEA66AE7EE845A08D1F0EE466A3A
:1059B000F0EE645AE7EE056AE7EE855A08E0B0F1CA
:1059C000FF3F12BF73EEE66A76EEE36AF1EE655AC8
:1059D0000832A242C3ED006AC3ED015A01F1080189
:1059E00003F10803BCD1AB8C23F0040343F0400364
:1059F000AB8430BC704700BFF8080020084A08B5E7
:105A0000138B03F00101814209D023F0010303430A
:105A10002820138306F008F9024B00221A7708BDEC
:105A2000F8080020080300202DE9F04F2DED028B2F
:105A3000061E85B0154601DB574C98E0564CD4F84D
:105A40000CA08A45894680F09180B4F822802769AD
:105A500008F1FF388F421FFA88F801D8464686E0E1
:105A6000A7EB0A07A1EB0A003A460023A0FB0801B6
:105A7000FAF74CFF0646A6FB0723F11707FB013395
:105A80004FEA580112EB010B43F1000C1FFA88F2A8
:105A9000002358466146CDE902BCCDE90023FAF760
:105AA00035FFDDE902128346781842F10001DDE995
:105AB0000023FAF72BFF0AEB0B0291458244A0EB7F
:105AC0000B0054D060B1A9EB020307EE103A07EEC9
:105AD000900AB8EE477AF8EE677A87EE278A01E0F7
